{
  "contractName": "Pixells",
  "abi": [
    {
      "anonymous": false,
      "inputs": [
        {
          "indexed": false,
          "internalType": "address",
          "name": "pixelOwner",
          "type": "address"
        },
        {
          "indexed": false,
          "internalType": "string",
          "name": "newPixelColor",
          "type": "string"
        },
        {
          "indexed": false,
          "internalType": "uint256",
          "name": "x",
          "type": "uint256"
        },
        {
          "indexed": false,
          "internalType": "uint256",
          "name": "y",
          "type": "uint256"
        }
      ],
      "name": "ColorChanged",
      "type": "event"
    },
    {
      "anonymous": false,
      "inputs": [
        {
          "indexed": false,
          "internalType": "address",
          "name": "pixelOwner",
          "type": "address"
        },
        {
          "indexed": false,
          "internalType": "uint256",
          "name": "newPixelPrice",
          "type": "uint256"
        },
        {
          "indexed": false,
          "internalType": "uint256",
          "name": "x",
          "type": "uint256"
        },
        {
          "indexed": false,
          "internalType": "uint256",
          "name": "y",
          "type": "uint256"
        }
      ],
      "name": "PriceChanged",
      "type": "event"
    },
    {
      "anonymous": false,
      "inputs": [
        {
          "indexed": false,
          "internalType": "address",
          "name": "pixelOwner",
          "type": "address"
        },
        {
          "indexed": false,
          "internalType": "uint256",
          "name": "pixelPrice",
          "type": "uint256"
        },
        {
          "indexed": false,
          "internalType": "string",
          "name": "pixelColor",
          "type": "string"
        },
        {
          "indexed": false,
          "internalType": "uint256",
          "name": "x",
          "type": "uint256"
        },
        {
          "indexed": false,
          "internalType": "uint256",
          "name": "y",
          "type": "uint256"
        }
      ],
      "name": "Purchase",
      "type": "event"
    },
    {
      "constant": true,
      "inputs": [],
      "name": "ContractBalance",
      "outputs": [
        {
          "internalType": "uint256",
          "name": "",
          "type": "uint256"
        }
      ],
      "payable": false,
      "stateMutability": "view",
      "type": "function"
    },
    {
      "constant": false,
      "inputs": [],
      "name": "DESTROY",
      "outputs": [],
      "payable": false,
      "stateMutability": "nonpayable",
      "type": "function"
    },
    {
      "constant": true,
      "inputs": [],
      "name": "contractOwner",
      "outputs": [
        {
          "internalType": "address",
          "name": "",
          "type": "address"
        }
      ],
      "payable": false,
      "stateMutability": "view",
      "type": "function"
    },
    {
      "constant": true,
      "inputs": [
        {
          "internalType": "address",
          "name": "",
          "type": "address"
        }
      ],
      "name": "pixelOwnerPixelCount",
      "outputs": [
        {
          "internalType": "uint256",
          "name": "",
          "type": "uint256"
        }
      ],
      "payable": false,
      "stateMutability": "view",
      "type": "function"
    },
    {
      "constant": false,
      "inputs": [
        {
          "internalType": "address",
          "name": "newOwner",
          "type": "address"
        }
      ],
      "name": "transferOwnership",
      "outputs": [],
      "payable": false,
      "stateMutability": "nonpayable",
      "type": "function"
    },
    {
      "constant": false,
      "inputs": [
        {
          "internalType": "uint256",
          "name": "x",
          "type": "uint256"
        },
        {
          "internalType": "uint256",
          "name": "y",
          "type": "uint256"
        },
        {
          "internalType": "string",
          "name": "color",
          "type": "string"
        }
      ],
      "name": "buyPixel",
      "outputs": [],
      "payable": true,
      "stateMutability": "payable",
      "type": "function"
    },
    {
      "constant": false,
      "inputs": [
        {
          "internalType": "uint256",
          "name": "x",
          "type": "uint256"
        },
        {
          "internalType": "uint256",
          "name": "y",
          "type": "uint256"
        },
        {
          "internalType": "string",
          "name": "newColor",
          "type": "string"
        }
      ],
      "name": "setColor",
      "outputs": [],
      "payable": false,
      "stateMutability": "nonpayable",
      "type": "function"
    },
    {
      "constant": false,
      "inputs": [
        {
          "internalType": "uint256",
          "name": "x",
          "type": "uint256"
        },
        {
          "internalType": "uint256",
          "name": "y",
          "type": "uint256"
        },
        {
          "internalType": "uint256",
          "name": "newPrice",
          "type": "uint256"
        }
      ],
      "name": "setPrice",
      "outputs": [],
      "payable": false,
      "stateMutability": "nonpayable",
      "type": "function"
    },
    {
      "constant": false,
      "inputs": [],
      "name": "withdrawAll",
      "outputs": [
        {
          "internalType": "uint256",
          "name": "",
          "type": "uint256"
        }
      ],
      "payable": false,
      "stateMutability": "nonpayable",
      "type": "function"
    },
    {
      "constant": true,
      "inputs": [
        {
          "internalType": "uint256",
          "name": "x",
          "type": "uint256"
        },
        {
          "internalType": "uint256",
          "name": "y",
          "type": "uint256"
        }
      ],
      "name": "getPixel",
      "outputs": [
        {
          "internalType": "address",
          "name": "",
          "type": "address"
        },
        {
          "internalType": "uint256",
          "name": "",
          "type": "uint256"
        },
        {
          "internalType": "string",
          "name": "",
          "type": "string"
        }
      ],
      "payable": false,
      "stateMutability": "view",
      "type": "function"
    },
    {
      "constant": true,
      "inputs": [],
      "name": "getBalance",
      "outputs": [
        {
          "internalType": "address",
          "name": "",
          "type": "address"
        },
        {
          "internalType": "uint256",
          "name": "",
          "type": "uint256"
        },
        {
          "internalType": "uint256",
          "name": "",
          "type": "uint256"
        }
      ],
      "payable": false,
      "stateMutability": "view",
      "type": "function"
    }
  ],
  "bytecode": "0x60806040526103e86004556103e8600555336000806101000a81548173ffffffffffffffffffffffffffffffffffffffff021916908373ffffffffffffffffffffffffffffffffffffffff1602179055506116a68061005f6000396000f3fe60806040526004361061009c5760003560e01c80638a1dd162116100645780638a1dd1621461024f5780638e0b411a14610347578063aa585d56146103ac578063ce606ee0146103fb578063f2fde38b14610452578063fb386955146104a35761009c565b806312065fe0146100a15780632d52d9b7146101065780633b668059146101e2578063853828b61461020d578063875e18f714610238575b600080fd5b3480156100ad57600080fd5b506100b6610572565b604051808473ffffffffffffffffffffffffffffffffffffffff1673ffffffffffffffffffffffffffffffffffffffff168152602001838152602001828152602001935050505060405180910390f35b34801561011257600080fd5b506101e06004803603606081101561012957600080fd5b8101908080359060200190929190803590602001909291908035906020019064010000000081111561015a57600080fd5b82018360208201111561016c57600080fd5b8035906020019184600183028401116401000000008311171561018e57600080fd5b91908080601f016020809104026020016040519081016040528093929190818152602001838380828437600081840152601f19601f82011690508083019250505050505050919291929050505061059e565b005b3480156101ee57600080fd5b506101f761078e565b6040518082815260200191505060405180910390f35b34801561021957600080fd5b50610222610794565b6040518082815260200191505060405180910390f35b34801561024457600080fd5b5061024d610898565b005b34801561025b57600080fd5b506102926004803603604081101561027257600080fd5b810190808035906020019092919080359060200190929190505050610956565b604051808473ffffffffffffffffffffffffffffffffffffffff1673ffffffffffffffffffffffffffffffffffffffff16815260200183815260200180602001828103825283818151815260200191508051906020019080838360005b8381101561030a5780820151818401526020810190506102ef565b50505050905090810190601f1680156103375780820380516001836020036101000a031916815260200191505b5094505050505060405180910390f35b34801561035357600080fd5b506103966004803603602081101561036a57600080fd5b81019080803573ffffffffffffffffffffffffffffffffffffffff169060200190929190505050610b20565b6040518082815260200191505060405180910390f35b3480156103b857600080fd5b506103f9600480360360608110156103cf57600080fd5b81019080803590602001909291908035906020019092919080359060200190929190505050610b38565b005b34801561040757600080fd5b50610410610d0c565b604051808273ffffffffffffffffffffffffffffffffffffffff1673ffffffffffffffffffffffffffffffffffffffff16815260200191505060405180910390f35b34801561045e57600080fd5b506104a16004803603602081101561047557600080fd5b81019080803573ffffffffffffffffffffffffffffffffffffffff169060200190929190505050610d31565b005b610570600480360360608110156104b957600080fd5b810190808035906020019092919080359060200190929190803590602001906401000000008111156104ea57600080fd5b8201836020820111156104fc57600080fd5b8035906020019184600183028401116401000000008311171561051e57600080fd5b91908080601f016020809104026020016040519081016040528093929190818152602001838380828437600081840152601f19601f820116905080830192505050505050509192919290505050610e53565b005b6000806000303073ffffffffffffffffffffffffffffffffffffffff1631600154925092509250909192565b828260026000838152602001908152602001600020600082815260200190815260200160002060000160009054906101000a900473ffffffffffffffffffffffffffffffffffffffff1673ffffffffffffffffffffffffffffffffffffffff163373ffffffffffffffffffffffffffffffffffffffff161461066b576040517f08c379a000000000000000000000000000000000000000000000000000000000815260040180806020018281038252602381526020018061164f6023913960400191505060405180910390fd5b8260026000878152602001908152602001600020600086815260200190815260200160002060020190805190602001906106a69291906114a9565b507f7a332ce0ec69b7e6b5456289704e58c59ae9706f718a93b71efa203b3d93b0f633848787604051808573ffffffffffffffffffffffffffffffffffffffff1673ffffffffffffffffffffffffffffffffffffffff16815260200180602001848152602001838152602001828103825285818151815260200191508051906020019080838360005b8381101561074a57808201518184015260208101905061072f565b50505050905090810190601f1680156107775780820380516001836020036101000a031916815260200191505b509550505050505060405180910390a15050505050565b60015481565b60008060009054906101000a900473ffffffffffffffffffffffffffffffffffffffff1673ffffffffffffffffffffffffffffffffffffffff163373ffffffffffffffffffffffffffffffffffffffff161461083b576040517f08c379a000000000000000000000000000000000000000000000000000000000815260040180806020018281038252602e8152602001806115cf602e913960400191505060405180910390fd5b6000600154905060006001819055503373ffffffffffffffffffffffffffffffffffffffff166108fc829081150290604051600060405180830381858888f19350505050158015610890573d6000803e3d6000fd5b508091505090565b6000809054906101000a900473ffffffffffffffffffffffffffffffffffffffff1673ffffffffffffffffffffffffffffffffffffffff163373ffffffffffffffffffffffffffffffffffffffff161461093d576040517f08c379a000000000000000000000000000000000000000000000000000000000815260040180806020018281038252602e8152602001806115cf602e913960400191505060405180910390fd5b3373ffffffffffffffffffffffffffffffffffffffff16ff5b6000806060848460008211801561096d5750600081115b801561097b57506004548211155b801561098957506005548111155b6109de576040517f08c379a000000000000000000000000000000000000000000000000000000000815260040180806020018281038252602381526020018061162c6023913960400191505060405180910390fd5b60026000888152602001908152602001600020600087815260200190815260200160002060000160009054906101000a900473ffffffffffffffffffffffffffffffffffffffff1660026000898152602001908152602001600020600088815260200190815260200160002060010154600260008a81526020019081526020016000206000898152602001908152602001600020600201808054600181600116156101000203166002900480601f016020809104026020016040519081016040528092919081815260200182805460018160011615610100020316600290048015610b0a5780601f10610adf57610100808354040283529160200191610b0a565b820191906000526020600020905b815481529060010190602001808311610aed57829003601f168201915b5050505050905094509450945050509250925092565b60036020528060005260406000206000915090505481565b828260026000838152602001908152602001600020600082815260200190815260200160002060000160009054906101000a900473ffffffffffffffffffffffffffffffffffffffff1673ffffffffffffffffffffffffffffffffffffffff163373ffffffffffffffffffffffffffffffffffffffff1614610c05576040517f08c379a000000000000000000000000000000000000000000000000000000000815260040180806020018281038252602381526020018061164f6023913960400191505060405180910390fd5b60008311610c5e576040517f08c379a000000000000000000000000000000000000000000000000000000000815260040180806020018281038252602f8152602001806115fd602f913960400191505060405180910390fd5b82600260008781526020019081526020016000206000868152602001908152602001600020600101819055507fdac6aecd066304d15a41e8e590fc5ab5bf93634f43cba363f743d5e158d7998833848787604051808573ffffffffffffffffffffffffffffffffffffffff1673ffffffffffffffffffffffffffffffffffffffff16815260200184815260200183815260200182815260200194505050505060405180910390a15050505050565b6000809054906101000a900473ffffffffffffffffffffffffffffffffffffffff1681565b6000809054906101000a900473ffffffffffffffffffffffffffffffffffffffff1673ffffffffffffffffffffffffffffffffffffffff163373ffffffffffffffffffffffffffffffffffffffff1614610dd6576040517f08c379a000000000000000000000000000000000000000000000000000000000815260040180806020018281038252602e8152602001806115cf602e913960400191505060405180910390fd5b600073ffffffffffffffffffffffffffffffffffffffff168173ffffffffffffffffffffffffffffffffffffffff161415610e1057600080fd5b806000806101000a81548173ffffffffffffffffffffffffffffffffffffffff021916908373ffffffffffffffffffffffffffffffffffffffff16021790555050565b6103e880341015610e6357600080fd5b8383600082118015610e755750600081115b8015610e8357506004548211155b8015610e9157506005548111155b610ee6576040517f08c379a000000000000000000000000000000000000000000000000000000000815260040180806020018281038252602381526020018061162c6023913960400191505060405180910390fd5b600260008781526020019081526020016000206000868152602001908152602001600020600101543411610f82576040517f08c379a00000000000000000000000000000000000000000000000000000000081526004018080602001828103825260168152602001807f506978656c207072696365206973206869676865722e0000000000000000000081525060200191505060405180910390fd5b60026000878152602001908152602001600020600086815260200190815260200160002060000160009054906101000a900473ffffffffffffffffffffffffffffffffffffffff1673ffffffffffffffffffffffffffffffffffffffff163373ffffffffffffffffffffffffffffffffffffffff16141561106b576040517f08c379a000000000000000000000000000000000000000000000000000000000815260040180806020018281038252601b8152602001807f596f7520616c7265616479206f776e207468697320706978656c2e000000000081525060200191505060405180910390fd5b60006002600088815260200190815260200160002060008781526020019081526020016000206001015414156110bb57346001600082825401925050819055506110b6868686611210565b61118c565b600060026000888152602001908152602001600020600087815260200190815260200160002060010154111561118b57600060026000888152602001908152602001600020600087815260200190815260200160002060000160009054906101000a900473ffffffffffffffffffffffffffffffffffffffff1690508073ffffffffffffffffffffffffffffffffffffffff166108fc349081150290604051600060405180830381858888f1935050505015801561117d573d6000803e3d6000fd5b50611189878787611210565b505b5b60026000878152602001908152602001600020600086815260200190815260200160002060000160009054906101000a900473ffffffffffffffffffffffffffffffffffffffff1673ffffffffffffffffffffffffffffffffffffffff163373ffffffffffffffffffffffffffffffffffffffff161461120857fe5b505050505050565b6003600060026000868152602001908152602001600020600085815260200190815260200160002060000160009054906101000a900473ffffffffffffffffffffffffffffffffffffffff1673ffffffffffffffffffffffffffffffffffffffff1673ffffffffffffffffffffffffffffffffffffffff1681526020019081526020016000206000815480929190600190039190505550600360003373ffffffffffffffffffffffffffffffffffffffff1673ffffffffffffffffffffffffffffffffffffffff1681526020019081526020016000206000815480929190600101919050555060405180606001604052803373ffffffffffffffffffffffffffffffffffffffff1681526020013481526020018281525060026000858152602001908152602001600020600084815260200190815260200160002060008201518160000160006101000a81548173ffffffffffffffffffffffffffffffffffffffff021916908373ffffffffffffffffffffffffffffffffffffffff1602179055506020820151816001015560408201518160020190805190602001906113b8929190611529565b509050507f56e211b5241df064f15ecbd738a971d3cfc9e96384489ddd491621cdbcce33373334838686604051808673ffffffffffffffffffffffffffffffffffffffff1673ffffffffffffffffffffffffffffffffffffffff16815260200185815260200180602001848152602001838152602001828103825285818151815260200191508051906020019080838360005b8381101561146657808201518184015260208101905061144b565b50505050905090810190601f1680156114935780820380516001836020036101000a031916815260200191505b50965050505050505060405180910390a1505050565b828054600181600116156101000203166002900490600052602060002090601f016020900481019282601f106114ea57805160ff1916838001178555611518565b82800160010185558215611518579182015b828111156115175782518255916020019190600101906114fc565b5b50905061152591906115a9565b5090565b828054600181600116156101000203166002900490600052602060002090601f016020900481019282601f1061156a57805160ff1916838001178555611598565b82800160010185558215611598579182015b8281111561159757825182559160200191906001019061157c565b5b5090506115a591906115a9565b5090565b6115cb91905b808211156115c75760008160009055506001016115af565b5090565b9056fe596f7520617265206e6f7420656e7469746c656420746f206578656375746520746869732066756e6374696f6e2e546865207072696365206f6620796f757220506978656c206d7573742062652067726561746572207468616e20302e506978656c20636f6f7264696e6174657320617265206f7574206f662072616e67652e596f7520617265206e6f7420746865206f776e6572206f662074686520706978656c2ea265627a7a7231582008833d9e073573ed79d6bcb13e5cca9bd419d242ffdaf55efe8b143df042bd0864736f6c634300050c0032",
  "source": "//Open Ganache and Link the new project with the truffle-config.js file, save and restart\r\n// >> truffle migrate\r\n\r\nimport\"./Ownable.sol\";\r\nimport\"./Destroyable.sol\";\r\n\r\npragma solidity 0.5.12;\r\n\r\ncontract Pixells is Ownable, Destroyable {\r\n\r\n    uint public ContractBalance;\r\n\r\n//** Events */\r\n    event Purchase (address pixelOwner, uint pixelPrice, string pixelColor, uint x, uint y);\r\n    event ColorChanged (address pixelOwner, string newPixelColor, uint x, uint y);\r\n    event PriceChanged (address pixelOwner, uint newPixelPrice, uint x, uint y);\r\n\r\n//** State variable Declaration */\r\n\tstruct Pixel {\r\n\t\taddress pixelOwner;\r\n\t\tuint pixelPrice;\r\n\t\tstring pixelColor;\r\n\t}\r\n\r\n\tmapping (uint => mapping (uint => Pixel)) private canvas;\r\n    mapping (address => uint) public pixelOwnerPixelCount;\r\n\r\n// Set Canvas Dimension in Pixel\r\n\tuint maxWidth_x = 1000;\r\n\tuint maxHeight_y = 1000;\r\n\r\n//** Modifiers */\r\n// Only Owner of the Pixel can execute the function modifier\r\n    modifier onlyPixelOwner(uint x, uint y) {\r\n        require(msg.sender == canvas[x][y].pixelOwner, \"You are not the owner of the pixel.\");\r\n        _;\r\n    }\r\n// Check critera of Pixel coordinates modifier\r\n    modifier isPixel(uint x, uint y) {\r\n        require(x > 0 && y > 0 && x <= maxWidth_x && y <= maxHeight_y, \"Pixel coordinates are out of range.\");\r\n        _;\r\n    }\r\n// Minimum price modifier for payable functions\r\n    modifier costs(uint amount){\r\n        require(msg.value >= amount);\r\n        _;\r\n    }\r\n\r\n//** Private helper Functions */\r\n// Function to Purchase Pixel\r\n    function pixelPurchase(uint x, uint y, string memory color) private {\r\n        pixelOwnerPixelCount[canvas[x][y].pixelOwner]--;\r\n        pixelOwnerPixelCount[msg.sender]++;\r\n        canvas[x][y] = Pixel({pixelOwner: msg.sender, pixelPrice: msg.value, pixelColor: color});\r\n        emit Purchase(msg.sender, msg.value, color, x, y);\r\n    }\r\n\r\n//** Setter Functions */\r\n// Function to buy a Pixel from Contract\r\n\tfunction buyPixel(uint x, uint y, string memory color) public payable costs(1000) isPixel(x,y) {\r\n        require (msg.value > canvas[x][y].pixelPrice, \"Pixel price is higher.\");\r\n        require (msg.sender != canvas[x][y].pixelOwner, \"You already own this pixel.\");\r\n\r\n        if (canvas[x][y].pixelPrice == 0){\r\n            ContractBalance += msg.value;\r\n            pixelPurchase(x,y, color);\r\n\r\n        }\r\n        else if  (canvas[x][y].pixelPrice > 0){\r\n            address payable oldPixelOwnerPayable = address(uint160(canvas[x][y].pixelOwner));\r\n            oldPixelOwnerPayable.transfer(msg.value);\r\n            pixelPurchase(x,y, color);\r\n        }\r\n        assert(msg.sender == canvas[x][y].pixelOwner);\r\n\t}\r\n\r\n// Function to set Pixel Color\r\n    function setColor(uint x, uint y, string memory newColor) public onlyPixelOwner(x,y) {\r\n        canvas[x][y].pixelColor = newColor;\r\n        emit ColorChanged(msg.sender, newColor, x, y);\r\n    }\r\n// Function to set Pixel Price\r\n    function setPrice(uint x, uint y, uint newPrice) public onlyPixelOwner(x,y) {\r\n        require(newPrice > 0, \"The price of your Pixel must be greater than 0.\");\r\n        canvas[x][y].pixelPrice = newPrice;\r\n        emit PriceChanged(msg.sender, newPrice, x, y);\r\n    }\r\n// Function to Withdraw Funds\r\n    function withdrawAll() public onlyContractOwner returns(uint){\r\n        uint toTransfer = ContractBalance;\r\n        ContractBalance = 0;\r\n        msg.sender.transfer(toTransfer);\r\n        return toTransfer;\r\n    }\r\n\r\n//** Getter Functions */\r\n// Function to check current settings of a specific Pixel\r\n\tfunction getPixel(uint x, uint y) public view isPixel(x,y) returns(address, uint, string memory) {\r\n\t\treturn (canvas[x][y].pixelOwner, canvas[x][y].pixelPrice, canvas[x][y].pixelColor);\r\n\t}\r\n// Function to get the Balance of the Contract\r\n    function getBalance() public view returns (address, uint, uint) {\r\n        return (address(this), address(this).balance, ContractBalance);\r\n    }\r\n\r\n}\r\n",
  "sourcePath": "C:/Users/pault/OneDrive/GitHub/Pixells/contracts/Pixells.sol",
  "compiler": {
    "name": "solc",
    "version": "0.5.12+commit.7709ece9.Emscripten.clang"
  },
  "schemaVersion": "3.0.16",
  "updatedAt": "2019-12-17T14:11:13.188Z",
  "devdoc": {
    "methods": {}
  },
  "userdoc": {
    "methods": {}
  }
}